:020000040800F2
:10000000000B00202902000831020008330200081A
:10001000350200083702000839020008000000001D
:100020000000000000000000000000003B0200088B
:100030003D020008000000003F02000841020008E5
:10004000430200084302000843020008430200087C
:10005000430200084302000843020008430200086C
:10006000430200084302000843020008430200085C
:10007000430200084302000843020008430200084C
:10008000430200084302000843020008430200083C
:10009000430200084302000843020008430200082C
:1000A000430200084302000843020008430200081C
:1000B00075350008430200084302000843020008A7
:1000C00043020008430200084302000843020008FC
:1000D0004302000843020008BD550008430200081F
:1000E0004302000843020008430200080000000029
:1000F0000000000000000000000000000000000000
:1001000000000000000000000000000043020008A2
:1001100043020008430200084302000800000000F8
:10012000430200084302000843020008430200089B
:100130004302000800000000000000000000000072
:100140004302000843020008000000000000000015
:10015000000000000000000000000000000000009F
:1001600000000000000000004302000843020008F5
:100170004302000800000000000000000000000032
:10018000000000004302000800F002F800F03CF814
:100190000AA090E8000C82448344AAF10107DA45E2
:1001A00001D100F031F8AFF2090EBAE80F0013F0F8
:1001B000010F18BFFB1A43F0010318477C740000BD
:1001C0009C740000103A24BF78C878C1FAD852074E
:1001D00024BF30C830C144BF04680C6070470000C1
:1001E0000023002400250026103A28BF78C1FBD840
:1001F000520728BF30C148BF0B6070471FB506F0DB
:10020000B3FC1FBD10B510BD00F00AF91146FFF791
:10021000F5FF05F023FA00F028F903B4FFF7F2FF29
:1002200003BC00F08DF900000948804709480047E9
:10023000FEE7FEE7FEE7FEE7FEE7FEE7FEE7FEE796
:10024000FEE7FEE704480549054A064B70470000F3
:10025000613500088901000800050020000B00201E
:1002600000070020000700209FED1A1AF5EE000A93
:1002700040EE010ABDEEE00AF5EEC00A10EE100AEB
:10028000F1EE10FA38BF401E00EE100A1349F7EEE7
:10029000001AB8EEC00A30EEC00ADFED0F0A20EEF9
:1002A000200AFCEEC00A10EE900AC0F3080000EE2F
:1002B000900A01EB8000F8EE600A90ED011A70EEF2
:1002C000600A90ED000A71EEE01A21EE800A00EE5D
:1002D000810A704783F9223E00000044346E000812
:1002E000B5EEC00AF1EE10FA07D2DFED1E0AB4EE49
:1002F000E00AF1EE10FAA8BF7047DFED1B0AB5EE79
:10030000C00A60EE200ABDEEE01A11EE100AF1EE0E
:1003100010FA38BF401E00EE100A1549F7EE001A19
:10032000B8EEC00A30EEC00ADFED100A60EE200A17
:10033000BCEEE00A10EE100AC0F3080000EE100A4E
:1003400001EB8000B8EE400A90ED011A70EEC00A91
:1003500090ED000A71EEE01A21EE800A00EE810AAB
:1003600070470000CD024CB483F9223E00000044E7
:10037000346E00084FF0000200B5134694469646CE
:10038000203922BFA0E80C50A0E80C50B1F12001A8
:10039000BFF4F7AF090728BFA0E80C5048BF0CC056
:1003A0005DF804EB890028BF40F8042B08BF7047B4
:1003B00048BF20F8022B11F0804F18BF00F8012B26
:1003C000704770477047704710B500F009F8006833
:1003D00010BD10B5044600F003F8046010BD000025
:1003E00000487047A00400201FB584B000200A9C7C
:1003F00006AB04AA02A90094AFF3008018B1DDE9AE
:10040000020108B010BD0348204000F037F800207A
:100410000146F6E70000207C00487047A004002059
:100420007546FFF7F9FFAE4605006946534620F0D2
:100430000700854618B020B5FFF704FFBDE820404F
:100440004FF000064FF000074FF000084FF0000B90
:1004500021F00701AC46ACE8C009ACE8C009ACE843
:10046000C009ACE8C0098D46704710B50446AFF32B
:1004700000802046BDE81040FFF7CFBE10B500F069
:1004800009F8BDE81040AFF30080002801D000F06B
:1004900057B8704710B5022803D0410103D50DA10C
:1004A00012E0002010BD010101D50FA10CE0C10038
:1004B00001D511A108E0810001D512A104E040009E
:1004C00001D513A100E0002115A000F03FF80120A4
:1004D00010BD0000496E76616C6964204F706572D2
:1004E0006174696F6E00000044697669646520423A
:1004F00079205A65726F00004F766572666C6F776F
:1005000000000000556E646572666C6F7700000035
:10051000496E657861637420526573756C74000070
:100520005349474650453A2041726974686D657475
:10053000696320657863657074696F6E3A200000A6
:1005400001491820ABBEFEE72600020070B5054643
:100550000C460A2000E06D1C00F011F835B1287837
:100560000028F8D102E0641C00F009F814B12078EA
:100570000028F8D1BDE870400A20AFF3008008B52C
:1005800069468DF800000320ABBE08BD704700002F
:1005900000B59FB00020FE490880FE490880012078
:1005A000FD4908800020FD490870B3EE030AFC48AD
:1005B00080ED000A9FEDFB0AFB4880ED010A9FEDEC
:1005C000FB0A80ED000A9FEDFA0A80ED020A8068BE
:1005D000179006F013FACDE91A01F3480068159058
:1005E00006F00CFA9FEDF30B53EC102BCDE916013E
:1005F0009DED160B51EC100B05F02EFDCDE9180109
:100600009DED1A0B53EC102B9DED180B51EC100BBC
:1006100005F022FDCDE91C019DED1C0B51EC100BEA
:1006200005F06CF8E049C860084690ED010AF0EE6C
:10063000000A20EE200AD0ED000A20EE200AD0EDBC
:10064000020A20EE200A80ED040A90ED000AD0EDA7
:10065000020A20EE200AD0ED000A20EE200AD0ED9A
:10066000020A20EE200A80ED050A90ED040AD0ED82
:10067000050A30EE200AF1EE000A30EE200AD0ED35
:10068000040A80EE801A80ED061A90ED040AD0ED7F
:10069000050A30EE200AF1EE000A70EE200A90ED15
:1006A000051AB2EE000AF0EE001A01EEC10A80EE61
:1006B000201A80ED071A90ED040AD0ED050A30EEFD
:1006C000600AF1EE000A30EE600AD0ED040A90ED07
:1006D000051A70EE810AB1EE001A70EE810A80EE02
:1006E000201A80ED081A9FEDB50A80ED090A9FEDEA
:1006F000B30A80ED0C0A9FEDB10A80ED0E0A9FED62
:10070000AF0A80ED100A9FEDAD0A80ED0D0A9FED56
:10071000AB0A80ED0F0A9FEDA90A80ED110A9FED4B
:10072000A70A80ED120A9FEDA50A80ED130A9FED3E
:10073000A30A80ED140A9FEDA20A80ED150AB0EE1F
:10074000000A80ED160A9FED970A9E4880ED010A87
:100750009FED960A80ED000A9FED950A80ED020A52
:100760008068179006F04AF9CDE91A0195480068AB
:10077000159006F043F99FED8F0B53EC102BCDE94C
:1007800016019DED160B51EC100B05F065FCCDE943
:1007900018019DED1A0B53EC102B9DED180B51EC2D
:1007A000100B05F059FCCDE91C019DED1C0B51EC23
:1007B000100B04F0A3FF8349C860084690ED010ABE
:1007C000F0EE000A20EE200AD0ED000A20EE200A0A
:1007D000D0ED020A20EE200A80ED040A90ED000A16
:1007E000D0ED020A20EE200AD0ED000A20EE200A09
:1007F000D0ED020A20EE200A80ED050A90ED040AF1
:10080000D0ED050A30EE200AF1EE000A30EE200AA3
:10081000D0ED040A80EE801A80ED061A90ED040AED
:10082000D0ED050A30EE200AF1EE000A70EE200A43
:1008300090ED051AB2EE000AF0EE001A01EEC10AC0
:1008400080EE201A80ED071A90ED040AD0ED050A1B
:1008500030EE600AF1EE000A30EE600AD0ED040AD4
:1008600090ED051A70EE810AB1EE001A70EE810A61
:1008700080EE201A80ED081A9FED500A80ED090ADB
:100880009FED4E0A80ED0C0A9FED4C0A80ED0E0A9A
:100890009FED4A0A80ED100A9FED480A80ED0D0A8F
:1008A0009FED460A80ED0F0A9FED440A80ED110A84
:1008B0009FED420A80ED120A9FED400A80ED130A77
:1008C0009FED3E0A80ED140A9FED3D0A80ED150A6A
:1008D000B0EE000A80ED160A9FED3B0A3B4880ED22
:1008E000000A9FED3B0A80ED010A9FED310A80ED81
:1008F000090A9FED2F0A374880ED080A9FED360A56
:1009000080ED090A9FED2D0A80ED0A0AB2EE040A75
:1009100080ED0B0A9FED290A80ED0C0A9FED2F0A4E
:1009200080ED0D0A90ED080AD0ED0D0A20EE200AA8
:100930008DED150A159806F061F89FED290B53EC23
:10094000102BCDE916019DED160B51EC100B05F0A7
:1009500037F8CDE91A011F4890ED080AD0ED0C0ACE
:1009600020EE200A8DED150A159806F047F89FED48
:100970001C0B53EC102BCDE916019DED160B51EC21
:10098000100B05F01DF8CDE918019DED1A0B2BE0B9
:100990008A000020960000209A0000209C00002081
:1009A00054000020E17AB43F9C03002064149D436E
:1009B0006F128339000000000000E03F00000000DB
:1009C000CDCC4C3E080400200AD7233BB4020020C3
:1009D0009A99993D4C0300200AD7A33B00401C463E
:1009E000000000000000004053EC102B9DED180BA0
:1009F00051EC100B05F030FBCDE91C019DED1C0BFB
:100A000051EC100B04F07AFEFE498863084690ED25
:100A1000080AD0ED0C0A20EE200A8DED110A11987B
:100A200005F0ECFF1FED120B53EC102BCDE912017A
:100A30009DED120B51EC100B04F0C2FFCDE9160135
:100A4000F04890ED080AD0ED0D0A20EE200A8DED59
:100A5000110A119805F0D2FF9FEDEB0B53EC102B10
:100A6000CDE912019DED120B51EC100B04F0A8FF23
:100A7000CDE914019DED160B53EC102B9DED140BDD
:100A800051EC100B05F0E8FACDE91A01DD4890EDC4
:100A9000080AD0ED0D0A20EE200A8DED110A1198FA
:100AA00005F0ACFF1FED320B53EC102BCDE912011A
:100AB0009DED120B51EC100B04F082FFCDE91601F5
:100AC000D04890ED080AD0ED0C0A20EE200A8DEDFA
:100AD000110A119805F092FF9FEDCB0B53EC102BF0
:100AE000CDE912019DED120B51EC100B04F068FFE3
:100AF000CDE914019DED160B53EC102B9DED140B5D
:100B000051EC100B05F0A8FACDE918019DED1A0B78
:100B100053EC102B9DED180B51EC100B04F050FF13
:100B2000CDE91C019DED1C0B51EC100B04F0E6FD12
:100B3000B449C863084690ED080AD0ED0D0A20EECE
:100B4000200A8DED150A159805F058FF9FEDAE0BA4
:100B500053EC102BCDE916019DED160B51EC100B4B
:100B600004F02EFFCDE91A01A64890ED080AD0ED59
:100B70000C0A20EE200A8DED150A159805F03EFFAF
:100B80009FEDA10B53EC102BCDE916019DED160B3B
:100B900051EC100B04F014FFCDE918019DED1A0B78
:100BA00053EC102B9DED180B51EC100B05F054FA83
:100BB000CDE91C019DED1C0B51EC100B04F09EFDCA
:100BC00090490864084690ED080AD0ED0B0A20EE23
:100BD000200A8DED150A159805F010FF1FED800B0A
:100BE00053EC102BCDE916019DED160B51EC100BBB
:100BF00004F0E6FECDE91A01824890ED080AD0ED36
:100C00000A0A20EE200A8DED150A159805F0F6FE69
:100C10001FED8D0B53EC102BCDE916019DED160B3E
:100C200051EC100B04F0CCFECDE918019DED1A0B30
:100C300053EC102B9DED180B51EC100B05F00CFA3A
:100C4000CDE91C019DED1C0B51EC100B04F056FD81
:100C50006C494864084690ED080AD0ED0A0A20EE77
:100C6000200A8DED110A119805F0C8FE1FEDA40BA6
:100C700053EC102BCDE912019DED120B51EC100B32
:100C800004F09EFECDE916015E4890ED080AD0ED15
:100C90000B0A20EE200A8DED110A119805F0AEFE28
:100CA0009FED590B53EC102BCDE912019DED120B6A
:100CB00051EC100B04F084FECDE914019DED160BF0
:100CC00053EC102B9DED140B51EC100B05F0C4F9F7
:100CD000CDE91A014B4890ED080AD0ED0B0A20EE41
:100CE000200A8DED110A119805F088FE1FEDC40B46
:100CF00053EC102BCDE912019DED120B51EC100BB2
:100D000004F05EFECDE916013E4890ED080AD0EDF4
:100D10000A0A20EE200A8DED110A119805F06EFEE8
:100D20009FED390B53EC102BCDE912019DED120B09
:100D300051EC100B04F044FECDE914019DED160BAF
:100D400053EC102B9DED140B51EC100B05F084F9B6
:100D5000CDE918019DED1A0B53EC102B9DED180BEE
:100D600051EC100B04F02CFECDE91C019DED1C0B89
:100D700051EC100B04F0C2FC22498864084690ED47
:100D8000080AD0ED0B0A20EE200A8DED150A159801
:100D900005F034FE9FED1C0B53EC102BCDE9160132
:100DA0009DED160B51EC100B04F00AFECDE91A0173
:100DB000144890ED080AD0ED0A0A20EE200A8DEDC5
:100DC000150A159805F01AFE9FED0F0B53EC102B2A
:100DD000CDE916019DED160B51EC100B04F0F0FD62
:100DE000CDE918019DED1A0B53EC102B9DED180B5E
:100DF00051EC100B05F030F9CDE91C019DED1C0BF9
:100E000006E000004C03002000000000000000C0CD
:100E100051EC100B04F072FCFE49C8649FEDFE0A11
:100E2000FE4880ED0C0A9FEDFE0A80ED080AB2EE46
:100E3000040A80ED090AB4EE000A80ED0A0A9FED6B
:100E4000F90A80ED0B0A90ED0C0AF0EE000A20EE94
:100E5000200A80ED0D0A006B0D9005F0CFFDCDE965
:100E60001001EE48806A0B9005F0C8FD9FEDEE0B77
:100E700053EC102BCDE90C019DED0C0B51EC100B3C
:100E800005F0EAF8CDE90E019DED100B53EC102BA7
:100E90009DED0E0B51EC100B05F0DEF8CDE91401C1
:100EA000DE4890ED0C0A60EE000A90ED0B0A20EE91
:100EB000800AD0ED0B0A20EE200A8DED110A119860
:100EC00005F09CFDCDE912019DED140B53EC102BA8
:100ED0009DED120B51EC100B04F072FD9FEDD20B47
:100EE00053EC102BCDE916019DED160B51EC100BB8
:100EF00004F066FDCDE91A01C848C06A119005F0FA
:100F00007DFDCDE91401C548C06A0D9005F076FD60
:100F1000CDE91001C148006B099005F06FFDCDE9E6
:100F20000C01BE48006B079005F068FD9FEDC00BFB
:100F300053EC102BCDE908019DED080B51EC100B83
:100F400005F08AF8CDE90A019DED0C0B53EC102B4E
:100F50009DED0A0B51EC100B05F07EF8CDE90E016A
:100F60009DED100B53EC102B9DED0E0B51EC100B67
:100F700005F072F8CDE912019DED140B53EC102B26
:100F80009DED120B51EC100B05F066F89FEDAA0BCE
:100F900053EC102BCDE916019DED160B51EC100B07
:100FA00005F02AFACDE918019DED1A0B53EC102B30
:100FB0009DED180B51EC100B04F034FECDE91C0133
:100FC0009DED1C0B51EC100B04F098FB93498863CA
:100FD0000846806A0D9005F011FDCDE910018F489B
:100FE000006B0B9005F00AFD9FED8F0B53EC102B5F
:100FF000CDE90C019DED0C0B51EC100B05F02CF81C
:10100000CDE90E019DED100B53EC102B9DED0E0B59
:1010100051EC100B05F020F8CDE914017F4890ED5C
:101020000C0A20EE000AD0ED0B0A60EE200A90EDCB
:101030000B0A20EE800A8DED110A119805F0DEFCF6
:10104000CDE912019DED140B53EC102B9DED120B0D
:1010500051EC100B04F0B4FC9FED730B53EC102B10
:10106000CDE916019DED160B51EC100B04F0A8FC18
:10107000CDE91A016948806A0F9005F0BFFCCDE9FF
:1010800012016648006B0D9005F0B8FC9FED660BF1
:1010900053EC102BCDE90E019DED0E0B51EC100B16
:1010A00004F0DAFFCDE910019DED120B53EC102B8B
:1010B0009DED100B51EC100B04F0CEFFCDE91601A5
:1010C000564890ED0C0A60EE000A90ED0B0A20EEF7
:1010D000800AD0ED0B0A20EE200A8DED110A11983E
:1010E00005F08CFC9FED500B53EC102BCDE9120159
:1010F0009DED120B51EC100B04F062FCCDE91401D4
:101100009DED160B53EC102B9DED140B51EC100BB9
:1011100005F072F9CDE918019DED1A0B53EC102B77
:101120009DED180B51EC100B04F07CFDCDE91C017A
:101130009DED1C0B51EC100B04F0E0FA3749C8632D
:101140000846806A0D9005F059FCCDE9100133483E
:10115000006B0B9005F052FC9FED330B53EC102B02
:10116000CDE90C019DED0C0B51EC100B04F074FF5C
:10117000CDE90E019DED100B53EC102B9DED0E0BE8
:1011800051EC100B04F068FFCDE91401234890EDF9
:101190000C0A60EE000A90ED0B0A20EE800AD0EDFA
:1011A0000B0A20EE200A8DED110A119805F026FC9D
:1011B000CDE912019DED140B53EC102B9DED120B9C
:1011C00051EC100B04F0FCFB9FED170B53EC102BB4
:1011D000CDE916019DED160B51EC100B04F0F0FB60
:1011E000CDE91A010D48406A0F9005F007FCCDE9E2
:1011F00012010A48806A0B9005F000FCCDE90E014F
:101200000648006B099005F0F9FB9FED070B53ECC6
:10121000102B15E04C0300206F12833900030020CF
:10122000CDCC4C3D64149D430000000000001040F4
:10123000000000000000004000000000000020400E
:10124000CDE90A019DED0A0B51EC100B04F004FFEF
:10125000CDE90C019DED0E0B53EC102B9DED0C0B0D
:1012600051EC100B04F0F8FECDE910019DED120BCE
:1012700053EC102B9DED100B51EC100B04F0ECFE19
:10128000CDE91601FE48006A0B9005F0B7FBCDE9E9
:101290000E01FB48806A079005F0B0FBCDE90A011A
:1012A000F748006B059005F0A9FB1FED210B53ECEF
:1012B000102BCDE906019DED060B51EC100B04F04F
:1012C000CBFECDE908019DED0A0B53EC102B9DEDF3
:1012D000080B51EC100B04F0BFFECDE90C019DEDA5
:1012E0000E0B53EC102B9DED0C0B51EC100B04F07E
:1012F000B3FECDE91201E24890ED0C0A20EE000A9F
:10130000D0ED0B0A20EE200AD0ED0B0A20EE200AC9
:101310008DED0B0A0B9805F071FBCDE90E01D84855
:10132000006A099005F06AFB1FED410B53EC102B8E
:10133000CDE90A019DED0A0B51EC100B04F08CFE77
:10134000CDE90C019DED0E0B53EC102B9DED0C0B1C
:1013500051EC100B04F034FBCDE910019DED120BA4
:1013600053EC102B9DED100B51EC100B04F028FBEF
:10137000CDE914019DED160B53EC102B9DED140BD4
:1013800051EC100B04F01CFBCDE918019DED1A0B7C
:1013900053EC102B9DED180B51EC100B04F042FC9C
:1013A000CDE91C019DED1C0B51EC100B04F0A6F9CE
:1013B000B34908640846806A0D9005F01FFBCDE92B
:1013C0001001AF48006B0B9005F018FB1FED6A0B86
:1013D00053EC102BCDE90C019DED0C0B51EC100BD7
:1013E00004F03AFECDE90E019DED100B53EC102BED
:1013F0009DED0E0B51EC100B04F02EFECDE9140107
:101400009F4890ED0C0A20EE000AD0ED0B0A60EE2A
:10141000200A90ED0B0A20EE800A8DED110A11983A
:1014200005F0ECFACDE912019DED140B53EC102BF5
:101430009DED120B51EC100B04F0C2FA1FED860B60
:1014400053EC102BCDE916019DED160B51EC100B52
:1014500004F0B6FACDE91A018948006A119005F046
:10146000CDFA1FED8B0B53EC102BCDE912019DED46
:10147000120B51EC100B04F0EFFDCDE91601804882
:10148000C06A0F9005F0BAFACDE912017C48C06A33
:101490000B9005F0B3FACDE90E017948006B079087
:1014A00005F0ACFACDE90A017548006B039005F030
:1014B000A5FACDE906017248006A019005F09EFA8E
:1014C0001FEDA50B53EC102BCDE902019DED020B96
:1014D00051EC100B04F0C0FDCDE904019DED060BAD
:1014E00053EC102B9DED040B51EC100B04F0B4FDEC
:1014F000CDE908019DED0A0B53EC102B9DED080B77
:1015000051EC100B04F0A8FDCDE90C019DED0E0B84
:1015100053EC102B9DED0C0B51EC100B04F09CFDCB
:10152000CDE910019DED120B53EC102B9DED100B2E
:1015300051EC100B04F090FDCDE914019DED160B5C
:1015400053EC102B9DED140B51EC100B04F054FFD9
:10155000CDE918019DED1A0B53EC102B9DED180BE6
:1015600051EC100B04F05EFBCDE91C019DED1C0B52
:1015700051EC100B04F0C2F8414948640846806AF7
:101580000D9005F03BFACDE910013D48006B0B9042
:1015900005F034FA1FEDDC0B53EC102BCDE90C01F8
:1015A0009DED0C0B51EC100B04F056FDCDE90E0136
:1015B0009DED100B53EC102B9DED0E0B51EC100B11
:1015C00004F04AFDCDE914012D4890ED0C0A20EEFF
:1015D000000AD0ED0B0A20EE200AD0ED0B0A20EE17
:1015E000200A8DED110A119805F008FACDE91201D3
:1015F0009DED140B53EC102B9DED120B51EC100BC9
:1016000004F0DEF91FEDF80B53EC102BCDE91601B9
:101610009DED160B51EC100B04F0D2F9CDE91A0137
:101620001748406A0F9005F0E9F9CDE91201144816
:10163000806A0B9005F0E2F9CDE90E011048006BCD
:10164000099005F0DBF99FED0F0B53EC102BCDE962
:101650000A019DED0A0B51EC100B04F0FDFCCDE9E5
:101660000C019DED0E0B53EC102B9DED0C0B51EC72
:10167000100B04F0F1FCCDE910019DED120B05E01B
:1016800000030020000000000000104053EC102B6D
:101690009DED100B51EC100B04F0DEFCCDE91601B2
:1016A000DD48006A0B9005F0A9F9CDE90E01DA4892
:1016B000806A079005F0A2F9CDE90A01D648006BCF
:1016C000059005F09BF91FED110B53EC102BCDE9A4
:1016D00006019DED060B51EC100B04F0BDFCCDE9AD
:1016E00008019DED0A0B53EC102B9DED080B51ECFE
:1016F000100B04F0B1FCCDE90C019DED0E0B53EC89
:10170000102B9DED0C0B51EC100B04F0A5FCCDE95A
:101710001201C14890ED080AD0ED0C0A20EE200A13
:10172000D0ED0C0A20EE200AD0ED0B0A20EE200AA4
:10173000D0ED0B0A20EE200A8DED0B0A0B9805F078
:101740005DF9CDE90E01B448006A099005F056F93B
:101750001FED340B53EC102BCDE90A019DED0A0B64
:1017600051EC100B04F078FCCDE90C019DED0E0B53
:1017700053EC102B9DED0C0B51EC100B04F020F9E9
:10178000CDE910019DED120B53EC102B9DED100BCC
:1017900051EC100B04F030FECDE914019DED160B59
:1017A00053EC102B9DED140B51EC100B04F024FEA8
:1017B000CDE918019DED1A0B53EC102B9DED180B84
:1017C00051EC100B04F02EFACDE91C019DED1C0B21
:1017D00051EC100B03F092FF8F4988649FED8F0A44
:1017E0008F4880ED230A9FED8F0A80ED060A9FED5A
:1017F0008D0A80ED070AB3EE040A80ED040A9FED1E
:10180000890A80ED050A9FED870A80ED000A9FEDA9
:10181000850A80ED010A9FED830A80ED020A9FEDA3
:10182000810A80ED030AB6EE000A80ED100A9FEDF2
:101830007E0A80ED110A9FED7B0A80ED0E0A9FED76
:10184000790A80ED0F0A9FED770A80ED080A9FED77
:10185000750A80ED090A9FED730A80ED0A0A9FED73
:10186000710A80ED0B0AB6EE000A80ED1A0A9FEDB0
:101870006E0A80ED1B0A9FED6B0A80ED180A9FED42
:10188000690A80ED190A9FED670A80ED120A9FED43
:10189000650A80ED130A9FED630A80ED140A9FED3F
:1018A000610A80ED150AB2EE0F0A604880ED000A69
:1018B000006805F0A3F89FED5E0B53EC102BCDE90B
:1018C0001A019DED1A0B51EC100B04F0C5FBCDE98C
:1018D0001C019DED1C0B51EC100B03F00FFF564942
:1018E00008609FED560A564880ED000A9FED4D0AAC
:1018F000544880ED000A9FED4B0A534880ED030ADF
:101900009FED480A80ED040A9FED460A80ED050A26
:101910009FED440A80ED060A9FED400A80ED000A23
:101920009FED4A0A80ED010A9FED3E0A80ED0D0A07
:101930009FED3C0A80ED0E0A9FED3A0A80ED0F0AFA
:101940009FED380A80ED100A9FED340A80ED0A0AF7
:101950009FED3E0A80ED0B0A00203D4908803D497D
:101960000880FB203C4908809FED2E0A3B4880ED13
:10197000000A00203A4908809FED3A0B3B4880ED71
:10198000000B9FED280A3A4880ED000A9FED250ADA
:10199000384880ED000A40F29F50374908809FED9B
:1019A000370B384880ED000B9FED1E0A364880ED5E
:1019B000000A9FED1C0A354880ED000A00203449DA
:1019C00008809FED180A334880ED000A9FED150A44
:1019D000314880ED000A9FED130A304880ED000A7F
:1019E0009FED100A2E4880ED000A9FED0E0A2D484B
:1019F00080ED000A9FED0B0A2B4880ED000A2B4872
:101A0000008838B900202A490873487380208873F9
:101A10007F20C8731FB000BD000300206F12833900
:101A2000D801002000000000CDCC4C3E5800002022
:101A300039B4C876BE9FF63F60000020CDCCCC3DC7
:101A40006400002068000020680200200AD7233BC1
:101A5000A0000020A200002080000020C000002084
:101A6000BC0000200000000000000000C8000020B2
:101A7000B0000020B4000020A800002000000000FA
:101A80000000F03F78000020280000202C000020FB
:101A9000480000204C00002050000020F4000020EE
:101AA000F0000020FC000020F80000208A00002048
:101AB000740400202DE9F04105460C4600266068BC
:101AC00000B100BF4FF0A04000F03BF807460F48C0
:101AD00000F037F80743AFB9606860B1D4E900019E
:101AE0000843A1680843E1680843A968084A11400F
:101AF0000843A86007E0A868054908402168084332
:101B0000A86000E001263046BDE8F08100010050E9
:101B1000E030FCFF70B505460C460026284600F074
:101B200010F858B9D4E900010843A1680843E968EE
:101B300044F2380291430843E86000E00126304651
:101B400070BD0146886800F00100704770B5054619
:101B50000C460026606800B100BF2846FFF7F1FF81
:101B600020BB606870B1A16820680843E168084341
:101B70002169084361690843E9680E4A1140084336
:101B8000E8600BE0E1682068084321690843616967
:101B90000843E968074A11400843E8606068296B18
:101BA00021F00F010143296300BF00E00126304608
:101BB00070BD00003CC0F0FF70B501F440744FF4FC
:101BC000407595FAA5F5B5FA85F5EC4000F13005BC
:101BD00005EB84031C6801F01F061F25B540AC43CC
:101BE00001F01F06C2F38465B5402C431C6070BD34
:101BF00070B501F000744FF0007595FAA5F5B5FACF
:101C000085F5EC4000F1140505EB84031C6801F038
:101C1000F8754FF0F87696FAA6F6B6FA86F6F5401D
:101C20000726AE40B44301F0F8754FF0F87696FA07
:101C3000A6F6B6FA86F6F54002FA05F52C431C60C6
:101C400070BD000070B5D0F8B030074C0C40A34315
:101C5000054C0C4002F01806034DF5402C40234380
:101C6000C0F8B03070BD0000FEFF070008B50549A0
:101C700049690143034A5161114649690140009194
:101C800000BF08BD0010024008B50549C9690143FD
:101C9000034AD1611146C9690140009100BF08BDE6
:101CA0000010024008B5054989690143034A916162
:101CB000114689690140009100BF08BD0010024033
:101CC00030B50246002000BF1368DB0F93B9D1E99D
:101CD000003423438C682343CC6823430C6923439B
:101CE0004C6923438C6923431468034D2C402343E0
:101CF000136000E0012030BD0343F0FFF0B5034660
:101D00000024506800B100BF08461D6800F01007AD
:101D10000126BE40354000F010070126BE40B54206
:101D200001D1012500E0002525BB506898B1186855
:101D300001F0100640F6FA75B540A843D2E9005606
:101D4000354396683543D668354301F01006B540F3
:101D5000284318600FE0186801F01006FA25B54016
:101D6000A843D6681568354301F01006B5402843EE
:101D7000186000E001242046F0BD000070B5049C0E
:101D8000102C09D14D1E094E755D0544EA604D1EAB
:101D9000755D0544AB6008E04D1E044E755D05445D
:101DA000AA604D1E755D0544EB6070BDE86D0008CE
:101DB00010B54A1E044B9A5C825842F001034A1E39
:101DC000014CA25C835010BDE86D000830B54B1E7D
:101DD000054CE35CC35823F4405313434C1E024D9F
:101DE0002C5D035130BD0000E86D000830B54B1E7E
:101DF000064CE35C03445B686FF30F0313434C1E14
:101E0000024D2C5D0444636030BD0000E86D0008A5
:101E100030B54B1E054CE35CC35823F080031343DD
:101E20004C1E024D2C5D035130BD0000E86D0008D2
:101E300030B54B1E054CE35CC35823F44063134399
:101E40004C1E024D2C5D035130BD0000E86D0008B2
:101E500030B54B1E054CE35CC35823F020031343FD
:101E60004C1E024D2C5D035130BD0000E86D000892
:101E700030B54B1E054CE35CC35823F040031343BD
:101E80004C1E024D2C5D035130BD0000E86D000872
:101E900030B54B1E054CE35CC35823F44073134329
:101EA0004C1E024D2C5D035130BD0000E86D000852
:101EB000F0B502460B46186890FAA0F0B0FA80F42C
:101EC0008BE00125A540186800EA050100297CD0B7
:101ED0005868012802D0586802281DD19868956872
:101EE00091FAA1F6B6FA86F677000326BE40B5430E
:101EF00091FAA1F6B6FA86F6760000FA06F63543B0
:101F0000956000BFDD6818685668864300FB05F7DA
:101F10003E43566000BF00BF1869D56891FAA1F62C
:101F2000B6FA86F677000326BE40B54391FAA1F6CD
:101F3000B6FA86F6760000FA06F63543D56000BF9D
:101F40005868022831D191FAA1F0B0FA80F008283F
:101F500014D25869156A91FAA1F6B6FA86F6B70056
:101F60000F26BE40B54391FAA1F6B6FA86F6B60042
:101F700000FA06F63543156200BF16E05869556A47
:101F80000E0A96FAA6F6B6FA86F6B7000F26BE40F7
:101F9000B5430E0A96FAA6F6B6FA86F6B60000FA29
:101FA00006F63543556200BF00BF5868156891FAC0
:101FB000A1F6B6FA86F677000326BE40B54391FA3D
:101FC000A1F6B6FA86F6760000E005E000FA06F61D
:101FD0003543156000BF00BF641C1868E04000284E
:101FE0007FF46FAFF0BD024610690840884201D10E
:101FF000012070470020FCE7816270474FF47A713E
:10200000B0FBF1F2521E4FF0E0235A6100229A61B8
:1020100005221A6100BF70472DE9F04104460025F2
:10202000B4F5401F2AD1204600F060F8B0F5405FBB
:1020300019D02B49084430B1B0F5801F0CD0B0F551
:10204000001F0FD103E001F093F9054615E000F001
:10205000F1F800B1234D10E000F0F4F808B14FF4AE
:1020600000450AE000BF01F083F9074601F04CF992
:10207000064601F059F9054600BF00BFB4F5400F10
:102080002AD1204600F032F8B0F5404F19D0164959
:10209000084430B1B0F5800F0CD0B0F5000F0FD16F
:1020A00003E001F065F9054615E000F0C3F800B162
:1020B0000C4D10E000F0C6F808B14FF400450AE0FE
:1020C00000BF01F055F9074601F01EF9064601F080
:1020D0002BF9054600BF00BF2846BDE8F08100008F
:1020E00000D0EFFF00127A000040BFFF0146034816
:1020F000006B084040EA11207047000000100240C9
:102100002DE9F041044600252CBB204600F086F85E
:10211000B0B1012804D002280BD003280FD103E06E
:1021200001F026F9054615E000F084F800B1384DBD
:1021300010E000F087F808B14FF400450AE000BF56
:1021400001F016F9074601F0DFF8064601F0FEF847
:10215000054600BF00BF102C2AD1204600F05EF8D3
:10216000B0F1805F19D02B49084430B1B0F5803F01
:102170000CD0B0F5003F0FD103E001F0F9F80546AF
:1021800015E000F057F800B1214D10E000F05AF8CA
:1021900008B14FF400450AE000BF01F0E9F8074636
:1021A00001F0B2F8064601F0BFF8054600BF00BFD7
:1021B000122C2AD1204600F031F8B0F1905F19D0EE
:1021C0001549084430B1B0F5802F0CD0B0F5002F80
:1021D0000FD103E001F0CCF8054615E000F02AF835
:1021E00000B10B4D10E000F02DF808B14FF40045A0
:1021F0000AE000BF01F0BCF8074601F085F806468A
:1022000001F092F8054600BF00BF2846BDE8F08106
:1022100000127A000000FFEF0000FCED01460448C8
:10222000006B03228A40104040EA016070470000C2
:102230000010024002480068C0F3400070470000F0
:10224000001002400248006AC0F3400070470000DE
:1022500000100240014908607047000000010020A2
:1022600010B503460A460021147B214690680143BD
:1022700021F48060546840EA040121F4006014688D
:1022800040EA040121F48050D48940EA040121F499
:102290000050146940EA040121F48040546A40EA85
:1022A000040121F40040546A40EA04010E488342CC
:1022B00004D121F47020546940EA04010A488342A1
:1022C0000ED121F47000146A40EA040121F08070FC
:1022D000946940EA040121F00070D46940EA0401E5
:1022E0005964002010BD0000002C0140026A0A431E
:1022F00002627047016841F0800101607047016827
:1023000041F0010101607047C16841F00101C16005
:102310007047000010B5024613682548824208D075
:10232000B2F1804F05D02348824202D02248824237
:1023300004D123F070004C6840EA04031C48824238
:1023400011D0B2F1804F0ED01A4882420BD01A48F9
:10235000824208D01948824205D01948824202D0F0
:102360001848824204D123F44070CC6840EA040348
:1023700013608868D06200BF0888906200BF0C4874
:10238000824208D00D48824205D00D48824202D0D8
:102390000C48824203D10869106300BF00BF00BF30
:1023A000506940F00100506100BF002010BD0000E6
:1023B000002C0140000400400008004000400140A3
:1023C000004401400048014070B50246012901D196
:1023D000002420E0042901D101241CE0102901D1AE
:1023E000022418E0402901D1032414E0B1F5807FD4
:1023F00001D104240FE0B1F5806F01D105240AE07A
:10240000B1F5805F01D1062405E0B1F5803F01D12F
:10241000072400E008242346064CE55C02F118047A
:1024200028190468044DEE5C0425B540AC430460F3
:1024300070BD0000EF6D0008F86D000870B5024631
:10244000012901D1002420E0042901D101241CE04C
:10245000102901D1022418E0402901D1032414E0FD
:10246000B1F5807F01D104240FE0B1F5806F01D177
:1024700005240AE0B1F5805F01D1062405E0B1F53D
:10248000803F01D1072400E008242346064CE55C88
:1024900002F1180428190468044DEE5C0825B540C3
:1024A0002C43046070BD0000EF6D0008F86D00085B
:1024B0002DE9F04106460C4615460127B4F5805F2C
:1024C00021D007DC012C0CD0102C10D0B4F5807F6B
:1024D0002BD112E0B4F5803F1BD0B4F5801F24D17E
:1024E0001DE02946304600F069FD07461EE02946FA
:1024F000304600F0B1FD074618E02946304600F0AE
:10250000FDFD074612E02946304600F045FE07462D
:102510000CE02946304600F07DFE074606E02946DD
:10252000304600F0B5FE074600E000BF00BF384669
:10253000BDE8F0818163704781637047C163704774
:102540008268024B1A400A4382607047F8BFFEFF60
:102550002DE9F04104460D4601270026204600F0F3
:102560007BF800286AD1E96868680843296908434C
:10257000A9690843216849F20C629143084320602D
:10258000A868616821F440510143616000BF686937
:10259000A16821F440710143A16000BF2948844231
:1025A00004D10020FFF7ACFD064620E02648844217
:1025B00004D11020FFF7A4FD064618E0234884420A
:1025C00004D11220FFF79CFD064610E0204884420B
:1025D00005D14FF44010FFF71FFD064607E01D48E8
:1025E000844204D14FF44000FFF716FD06462EB397
:1025F000286818B300273146AB692868B3F5004F47
:1026000012D14FEA410808EB5008B8FBF0F81FFA66
:1026100088F24FF6F07802EA080CC2F342084CEA5E
:10262000080CC4F80CC007E001EB5008B8FBF0F848
:102630001FFA88F8C4F80C8000BF00BF3846BDE818
:10264000F081000000380140004400400048004094
:10265000004C0040005000400146086800F00100B6
:1026600070470000F0B593B00020109011901290C8
:1026700018210AA8FDF77EFE00200690079008901A
:10268000099018216846FDF775FE4FF08050FFF75E
:10269000EDFA4FF40020FFF7E9FA4FF40030FFF7AE
:1026A000E5FA0F2000900320019000200490694675
:1026B0009048FFF7FDFB02200090032001900020CE
:1026C000049069464FF09040FFF7F2FB0020109015
:1026D00011904FF48040129010A94FF0A040FFF7E6
:1026E00019FA4FF490600A9004200B9000200C908F
:1026F0004FF400500D9003200E904FF480500F9037
:102700000AA94FF0A040FFF721FA4FF4803006905D
:1027100000200790089006A97748FFF7CBF94FF4FF
:1027200080604FF0A041C96821F4406101434FF03F
:10273000A042D16000BF00BF1046806820F040502A
:1027400011468860084680686C49084040F0805017
:102750001146886000BF6A4800686A49B0FBF1F022
:1027600000EB800040000A21B0FBF1F400E0641EA1
:10277000002CFCD14FF0A0436348644900F440159D
:102780004FF4401696FAA6F6B6FA86F6F54000F033
:10279000020606EBC60605EB860603F10C0505EB03
:1027A000860215685A4E0640B54301EA00063543D5
:1027B000156000BF184654490022134601F4401624
:1027C0004FF4401797FAA7F7B7FA87F7FE4000F1E2
:1027D000200707EB86052E6806F0F02643EA02473D
:1027E0003E432E6000BF00BF406820F080004FF0E5
:1027F000A041486000BF474A06214FF0A040FFF7C4
:10280000DBF9002243494FF0A040FFF7F1F97F22A6
:1028100040494FF0A040FFF715FA3F4A0C214FF016
:10282000A040FFF7C9F900223B494FF0A040FFF755
:10283000DFF97F2238494FF0A040FFF703FA374A0B
:1028400012214FF0A040FFF7B7F9002233494FF0B3
:10285000A040FFF7CDF97F2230494FF0A040FFF7AD
:10286000F1F92F4A18214FF0A040FFF7A5F90022F7
:102870002B494FF0A040FFF7BBF97F2228494FF0CA
:10288000A040FFF7DFF9274A4FF480714FF0A040D6
:10289000FFF792F9002223494FF0A040FFF7A8F973
:1028A0007F2220494FF0A040FFF7CCF900BF4FF046
:1028B000A040806811490840401C4FF0A04188604A
:1028C00000BF88008968184A114000F0804242F039
:1028D000004211434FF0A042916000BF00BF10467C
:1028E000806806490840001D1146886000BF13B08B
:1028F000F0BD00000008004800030050C0FFFF7F4B
:1029000000010020400D03000000C07DFEFF870095
:10291000FEFFC77D04006008400020198000501DA4
:10292000000180210002B025C0FFFF3F00B58DB03F
:102930001C2106A8FDF71EFD18216846FDF71AFDAB
:102940004FF40030FFF792F98020009003200190AF
:102950000020049069464FF09040FFF7A9FA00204C
:102960000690079040200890002009904FF40060E6
:102970000A9000010B9000200C9006A90648FFF772
:102980009FF900200449096821F400710143024ABB
:10299000116000BF0DB000BD2000014000B58BB03C
:1029A00000200790089009900A90182101A8FDF7CF
:1029B000E1FC4FF00050FFF767F94FF40030FFF7EC
:1029C00055F910200190032002900020059001A9E4
:1029D0004FF09040FFF76CFA3820079000200890E5
:1029E0000A9007AA08490948FFF788F906480749E5
:1029F000096800F0100304229A409143034A1160D1
:102A000000BF0BB000BD00000100100200740040C8
:102A100038B50120FFF72AF902F0E6FD054600224D
:102A2000022100F0ABFA044621460B2002F0E4FD3F
:102A30000B2002F0CBFD4848012100224B1E474CE1
:102A4000E35CC35844F21004A34313434C1E434DAC
:102A50002C5D035100BFFFF7B9F9202201213E4848
:102A6000FFF7F6F9002201213B48FFF701FA802227
:102A700001213948FFF7CCF94FF480720121364823
:102A8000FFF706FA4FF4806201213348FFF7D0F9CF
:102A90004FF0A0410020002210B901F1400200E0F7
:102AA0002F4A00BF144600202E4B012100902A48D7
:102AB000FFF764F9052201212748FFF797F9012163
:102AC0002548FFF775F902F08FFD05460222042123
:102AD00000F054FA04462146112002F08DFD112029
:102AE00002F074FD002207211B48FFF76FF9202236
:102AF00007211948FFF7ACF9402207211648FFF7D4
:102B0000B7F9002207211448FFF782F900220721B4
:102B10001148FFF7BDF9002207210F48FFF788F998
:102B20001148002212B900F1280101E000F124014E
:102B300000BF0C46002023460C4A0721009006489F
:102B4000FFF71CF9102207210348FFF74FF907216F
:102B50000148FFF72DF938BD00000240E86D00087C
:102B60000C030050CC0100200044004074040020FD
:102B700000B587B0182101A8FDF7FCFB4FF48000D9
:102B8000FFF774F84FF40020FFF770F84FF40030AF
:102B9000FFF76CF84FF48020FFF768F84FF480518E
:102BA0001E48FFF729FA4FF480411C48FFF724FA2A
:102BB00001200190032002900020059001A94FF010
:102BC0009040FFF775F94FF4A0400190012002906A
:102BD000002003900490059001A91048FFF768F9C0
:102BE0004FF40050019000200290039001200590C6
:102BF00001A90A48FFF75CF94FF4807001900220A8
:102C000002900020039004900590069001A94FF0D7
:102C10009040FFF74DF907B000BD000000040048E8
:102C200000B59DB0142118A8FDF7A4FB202110A821
:102C3000FDF7A0FB282106A8FDF79CFB182168469C
:102C4000FDF798FB4FF40060FFF72CF80020ADF87B
:102C50006000199040F29F501A9000201B901C9029
:102C600018A96A48FFF756FB6848FFF743FB0021A5
:102C70006648FFF765FC60201090012011901290CB
:102C80004FF4E16013900020149015901690179067
:102C900010AA10215D48FFF70BFC10215B48FFF7DD
:102CA00093FB7020109010AA4FF480715748FFF7E3
:102CB000FFFB4FF480715548FFF786FB1020534906
:102CC000896821F070010143504A916000BF0020E3
:102CD000114689684E4A114001434C4A916000BF39
:102CE00000BF1046C06820F040001146C86000BF19
:102CF00000BF0846C06820F48040C86000BF0020C4
:102D0000496821F070010143516000BF00BF1146C6
:102D1000496821F470010143516000BF00BF1046B3
:102D2000806820F080001146886000BF10211046A6
:102D3000FFF784FB4FF480713448FFF77FFB4FF4BB
:102D400000600690401007900020089036208DF813
:102D500024004FF48050ADF8260000200A904FF474
:102D600080400F9006A92948FFF77AFA4FF4802097
:102D7000FEF77CFF4FF40030FEF778FF0220009052
:102D800001900320029000200390049006200590FB
:102D900069462048FFF78CF84FF4B05000900220AD
:102DA00001900320029000200390049006200590DB
:102DB00069464FF09040FFF77BF84FF400400090D9
:102DC000022001900320029001200390049009202A
:102DD00005906946C006FFF76BF84FF488710B4801
:102DE000FFF784FA00BF0948406C40F400400749EF
:102DF000486400BF0846FFF782FA0448FFF77AFAF2
:102E00000248FFF781FA1DB000BD0000002C014010
:102E1000F8FFFEFF0004004830B597B0142112A857
:102E2000FDF7A8FA20210AA8FDF7A4FA2821684690
:102E3000FDF7A0FA0120FEF727FF02F0D5FB0546BB
:102E40000022012100F09AF8044621461C2002F0DD
:102E5000D3FB1C2002F0BAFB0020ADF84800139011
:102E600044F24F60149000201590169012A94FF074
:102E70008040FFF74FFA4FF08040FFF73BFA002108
:102E80004FF08040FFF75CFB69464FF08040FFF752
:102E9000E7F94FF488718806FFF728FA4FF0804071
:102EA000FFF72DFA4FF08040FFF724FA4FF08040F3
:102EB000FFF72AFA17B030BD30B58DB01C2106A837
:102EC000FDF758FA18216846FDF754FA4FF4003020
:102ED000FEF7DAFE4FF40030FEF7C8FE0C2000903B
:102EE000022001900320029000200390049007200C
:102EF000059069464FF09040FEF7DAFF02F074FB50
:102F000005460022022100F039F804462146262019
:102F100002F072FB262002F059FB4FF4E1300690DC
:102F200000200790089009900C200A9000200B9038
:102F30004FF400400C9006A90F48FFF709FB00BFB3
:102F40000D48006840F001000B49086000BF0846CA
:102F500000BF00BF00BF00F1080252E8002F42F09E
:102F6000800100F1080242E80013002BF3D100BFFA
:102F700000BF0DB030BD000000440040F0B5034676
:102F80000C4603F00701C1F10700042801D9042011
:102F900001E0C1F107000646081D072801D2002004
:102FA00000E0C81E05460120B040401E2040A84059
:102FB0000127AF407F1E17403843F0BD70B5024671
:102FC000106A20F001001062136A5568946924F0B9
:102FD00003041C4E04EA06000E6840EA060423F0CF
:102FE00002000E6940EA060323F001004E6840EA41
:102FF00006031548824208D01448824205D014487E
:10300000824202D01348824213D123F008004E6955
:1030100040EA860323F004008E6840EA860325F424
:1030200080708E6940EA060525F40070CE6940EA9A
:10303000460555609461C868506300BF1362002064
:1030400070BD00008FFFFEFF002C014000400140DA
:1030500000440140004801402DE9F04104460D467E
:10306000206A20F010002062266AD4F80480A76944
:1030700027F440771C483840296840EA012726F0A9
:103080002000296940EA011626F01000696840EA2C
:1030900001161648844208D01548844205D01548C8
:1030A000844202D01448844213D126F0800069691A
:1030B00040EA811626F04000A96840EA811628F40B
:1030C0008060A96940EA810828F40060E96940EA63
:1030D000C108C4F80480A7612046E968FFF72CFA0C
:1030E00026620020BDE8F081FF8FFFFE002C01402A
:1030F00000400140004401400048014070B50246D4
:10310000106A20F480701062136A5568D46924F044
:1031100003041C4E04EA06000E6840EA060423F489
:1031200000700E6940EA062323F480704E6840EA7E
:1031300006231548824208D01448824205D014481C
:10314000824202D01348824213D123F400604E69B8
:1031500040EA862323F480608E6840EA862325F4C3
:1031600080508E6940EA061525F40050CE6940EA89
:1031700046155560D461C868D06300BF1362002053
:1031800070BD00008FFFFEFF002C01400040014099
:10319000004401400048014070B50246106A20F426
:1031A00080501062146A5568D36923F44073144840
:1031B00018400E6840EA062324F400500E6940EAE5
:1031C000063424F480504E6840EA06340D488242AA
:1031D00008D00D48824205D00C48824202D00C48EB
:1031E000824204D125F480408E6940EA86155560FC
:1031F000D361C868106400BF1462002070BD000075
:10320000FF8FFFFE002C01400040014000440140C0
:103210000048014030B50246106A20F48030106248
:10322000136A546D154D04EA05000D6840EA050463
:1032300023F400300D8A40EA054323F480308D8862
:1032400040EA05430E48824208D00E48824205D02B
:103250000D48824202D00D48824206D1506820F4C7
:1032600080308D6940EA052050605465C868956DCE
:10327000906500BF1362002030BD00008FFFFEFF8D
:10328000002C014000400140004401400048014042
:1032900030B50246106A20F480101062136A546D33
:1032A000144820400D6840EA052423F400100D8ADC
:1032B00040EA055323F480108D8840EA05530E48F8
:1032C000824208D00D48824205D00D48824202D089
:1032D0000C48824206D1506820F480208D6940EA73
:1032E000852050605465C868D06500BF1362002017
:1032F00030BD0000FF8FFFFE002C01400040014068
:103300000044014000480140014600BF04484068B5
:1033100000F0F0000009034A125C21FA02F0704745
:10332000001002401C6E0008014600BF05484068BE
:1033300000F4E060044A02EB1020027821FA02F067
:1033400070470000001002402C6E0008014600BFCC
:103350000548406800F46050044A02EBD02002782F
:1033600021FA02F070470000001002402C6E0008A5
:1033700010B5002400BF0B48406800F00C0020B1DD
:10338000042804D0082808D103E0074C07E0064CC5
:1033900005E000F00BF8044601E0034C00BF00BF5D
:1033A000204610BD0010024000127A0010B5002126
:1033B000002200BF1448406800F4803002461AB171
:1033C000B2F5803F04D101E0104903E0104901E06B
:1033D0000E4900BF00BF00BF0B48C06A00F00F00DD
:1033E000401CB1FBF0F30848406800F4701000F492
:1033F00070104FF4701494FAA4F4B4FA84F4E0401A
:10340000801C584310BD00000010024000093D0020
:1034100000127A0010B502204D49096821F0070119
:1034200001434B4A116000BF00BF00BF484800681D
:1034300000F007000228F8D100BF4648006840F4B9
:1034400080304449086000BF00BF00BF41480068A9
:10345000C0F340400028F8D04FF480304FF4E01122
:103460003C4A526822F4741200F480330B431A432E
:10347000384B5A601A46D26A60F30302DA6200BF20
:1034800000BF1846006840F080701946086000BF11
:1034900000BF00BF2F480068C0F340600028F8D08C
:1034A00000202C49496821F0F0010143294A51606C
:1034B00000BF10151146496821F4E06101435160D5
:1034C00000BF00201146496821F46051014351605A
:1034D00000BF02201146496821F0030101435160F9
:1034E00000BF00BF00BF1B48406800F00C00082868
:1034F000F8D11948FEF782FD1748FEF7ABFE1748D2
:103500001449096B030E03229A40914320F07F4235
:103510001143104A116300BF00201146096BC30E0E
:1035200092159A40914301430A4A116300BF9015D6
:103530001146C96A21F4F8710143D16200BF8004C9
:103540001146496821F0E0610143516000BF10BDA0
:10355000002002400010024000A24A0400000110B6
:103560000348006840F4700001490860704700009B
:1035700088ED00E000B52DED028B8DB000BF4FF05F
:103580008040006900F00100002801F0FC8700BFC6
:103590006FF001004FF08041086100BF4914FE4800
:1035A000FEF721FD38B14FF480400B90FA490B989B
:1035B000886100BF07E04FF480400B90F6490B98FC
:1035C000886200BF00BFF548008800284AD14FF448
:1035D0000051F148FEF707FD00EE100AB8EE400A70
:1035E000EF4880ED000AEF4890ED000AEC4880EDCE
:1035F000010AED4890ED000AE94880ED020AEB4926
:103600000860084600680078E9490870E7480068E3
:1036100040784870E548006880788870E348006822
:10362000C078C870E148006800790871DF48006818
:1036300040794871DD48006880798871DB4800680E
:10364000C079C871D9480068007A0872D748006804
:10365000407A4872D5480068807A8872D3480068FA
:10366000C07AC872CD480088012865D1D14890ED54
:10367000000ACB4880ED000ACF4890ED000AC84808
:1036800080ED010ACD4890ED000AC54880ED020AA0
:10369000CB4890ED140A8DED0B0A9DED0B0AFCF75B
:1036A000E3FDC848D0ED050A20EE200ABC4880EDB5
:1036B000030ABE490860084600680078BC490870E3
:1036C000BA48006840784870B848006880788870C8
:1036D000B6480068C078C870B448006800790871BE
:1036E000B248006840794871B048006880798871B4
:1036F000AE480068C079C871AC480068007A0872AA
:10370000AA480068407A4872A8480068807A88729F
:10371000A6480068C07AC872A4480068007B087395
:10372000A2480068407B4873A0480068807B88738B
:103730009E480068C07BC873A3480088A3490880DE
:10374000A1484088A24908809F488088A1490880F4
:103750009D48C088A04908809B4800899F490880EF
:103760009A48008800EE100AB8EE400A914880EDB1
:10377000000A006803F042F99FED990B53EC102BFF
:10378000CDE908019DED080B51EC100B02F064FC33
:10379000CDE90A019DED0A0B51EC100B01F0AEFFD3
:1037A000844908600846006803F028F99FED8E0BF5
:1037B00053EC102BCDE908019DED080B51EC100BDB
:1037C00002F04AFCCDE90A019DED0A0B51EC100B09
:1037D00001F094FF774908600846006803F00EF98D
:1037E0009FED830B53EC102BCDE908019DED080BE9
:1037F00051EC100B02F0E4F8CDE90A019DED0A0B43
:1038000051EC100B01F07AFF6A4908600846006825
:1038100003F0F4F89FED780B53EC102BCDE90A017F
:103820009DED0A0B51EC100B02F0DAFB04D89FED72
:10383000740A604880ED000A6748008802F0BDFB0A
:103840009FED700B53EC102BCDE908019DED080B9B
:1038500051EC100B02F0D0FDCDE90A019DED0A0BF1
:1038600051EC100B01F04AFF53490860084600680C
:1038700003F0C4F89FED650B53EC102BCDE9080164
:103880009DED080B51EC100B02F0E6FBCDE90A01AF
:103890009DED0A0B51EC100B01F030FF464908601A
:1038A0000846006803F0AAF89FED5A0B53EC102B62
:1038B000CDE908019DED080B51EC100B02F080F8EA
:1038C000CDE90A019DED0A0B51EC100B01F016FF3A
:1038D000394908604148008800EE100AB8EE400AF5
:1038E000364880ED000A006803F088F89FED4B0B26
:1038F00053EC102BCDE908019DED080B51EC100B9A
:1039000002F0AAFBCDE90A019DED0A0B51EC100B68
:1039100001F0F4FE294908602E48008802F04DFBB2
:103920009FED400B53EC102BCDE908019DED080BEA
:1039300051EC100B02F060FDCDE90A019DED0A0B80
:1039400051EC100B01F0DAFE3849086008460068B7
:1039500003F054F89FED360B53EC102BCDE9080122
:103960009DED080B51EC100B02F076FBCDE90A013E
:103970009DED0A0B51EC100B01F0C0FE2B490860C5
:103980000846006803F03AF89FED2B0B53EC102B20
:10399000CDE9080154E00000000400488A0000203E
:1039A000900400203800002044000020EC0000209B
:1039B000740400200C0000202400002018000020C7
:1039C0009C030020B4020020CC0100200000002055
:1039D0000800002002000020040000200600002053
:1039E0007339FC323353913F000000000000F03F78
:1039F000333333333333F33F7B14AE47E17A843FC1
:103A00000AD7233C000000000000A0403C77CC8A8D
:103A1000F216993FCDCCCCCCCCCC12405CE84A0419
:103A2000AA7F703FC3F5285C0F3E9840300000200D
:103A30001E7186EAFF7F80BF000000000000E03FAB
:103A40009DED080B51EC100B02F0D6FCCDE90A01FC
:103A50009DED0A0B51EC100B01F050FEFE49086081
:103A6000FE48008802F0A9FA1FED120B53EC102B50
:103A7000CDE908019DED080B51EC100B02F0BCFCE8
:103A8000CDE90A019DED0A0B51EC100B01F036FE59
:103A9000F34908600846006802F0B0FF1FED1C0BF8
:103AA00053EC102BCDE908019DED080B51EC100BE8
:103AB00002F0D2FACDE90A019DED0A0B51EC100B90
:103AC00001F01CFEE64908600846006802F096FF17
:103AD0009FEDE40B53EC102BCDE908019DED080B95
:103AE00051EC100B02F088FCCDE90A019DED0A0BA8
:103AF00051EC100B01F002FED9490860084600683D
:103B000002F07CFF9FEDD90B53EC102BCDE908019F
:103B10009DED080B51EC100B02F09EFACDE90A0165
:103B20009DED0A0B51EC100B01F0E8FDCC4908604B
:103B3000D048006802F062FF9FEDCF0B53EC102BD2
:103B4000CDE908019DED080B51EC100B02F084FA51
:103B5000CDE90A019DED0A0B51EC100B01F0CEFDF1
:103B6000C7490860C748006802F048FF9FEDC60BD0
:103B700053EC102BCDE904019DED040B51EC100B1F
:103B800002F06AFACDE90801BD48006802F036FF8C
:103B9000CDE906019DED080B53EC102B9DED060BB6
:103BA00051EC100B01F00CFFCDE90A019DED0A0B61
:103BB00051EC100B01F0A2FDB1490860084690EDF0
:103BC000000AB04880ED000AB148006802F016FF14
:103BD0009FEDB00B53EC102BCDE908019DED080BC8
:103BE00051EC100B02F038FACDE90A019DED0A0BF9
:103BF00051EC100B01F082FDA8490860A84800684C
:103C000002F0FCFE9FEDA70B53EC102BCDE9040155
:103C10009DED040B51EC100B02F01EFACDE90801EA
:103C20009E48006802F0EAFECDE906019DED080B12
:103C300053EC102B9DED060B51EC100B01F0C0FE68
:103C4000CDE90A019DED0A0B51EC100B01F056FD78
:103C500092490860084690ED000A914880ED000AFC
:103C60009248006802F0CAFE9FED910B53EC102BB6
:103C7000CDE908019DED080B51EC100B02F0ECF9B9
:103C8000CDE90A019DED0A0B51EC100B01F036FD58
:103C9000894908608948006802F0B0FE9FED880BF2
:103CA00053EC102BCDE904019DED040B51EC100BEE
:103CB00002F0D2F9CDE908017F48006802F09EFECB
:103CC000CDE906019DED080B53EC102B9DED060B85
:103CD00051EC100B01F074FECDE90A019DED0A0BC9
:103CE00051EC100B01F00AFD73490860084690ED95
:103CF000000A724880ED000A5748006802F07EFE14
:103D00009FED710B53EC102BCDE908019DED080BD5
:103D100051EC100B02F0A0F9CDE90A019DED0A0B60
:103D200051EC100B01F0EAFC694908606948006831
:103D300002F064FE9FED680B53EC102BCDE90401FB
:103D40009DED040B51EC100B02F086F9CDE9080152
:103D50005F48006802F052FECDE906019DED080BB8
:103D600053EC102B9DED060B51EC100B01F028FECF
:103D7000CDE90A019DED0A0B51EC100B01F0BEFCE0
:103D800053490860084690ED000A524880ED000A49
:103D90003348006802F032FE9FED4B0B53EC102BC2
:103DA000CDE908019DED080B51EC100B02F054F920
:103DB000CDE90A019DED0A0B51EC100B01F09EFCC0
:103DC000474908604748006802F018FE9FED420B23
:103DD00053EC102BCDE904019DED040B51EC100BBD
:103DE00002F03AF9CDE908013D48006802F006FE0C
:103DF000CDE906019DED080B53EC102B9DED060B54
:103E000051EC100B01F0DCFDCDE90A019DED0A0B30
:103E100051EC100B01F072FC31490860084690ED3E
:103E2000000A304880ED000A2448006802F0E6FDF0
:103E30009FED2D0B53EC102BCDE90A019DED0A0BE4
:103E400051EC100B02F0A7FA02D8012028490870A3
:103E50001A4800684EE000003000002008000020F2
:103E60003C0000203D0AD7A3703DE23F7B14AE47E3
:103E7000E17A0040240000200AD7A3703D0AE73F02
:103E8000280000202C000020EC51B81E85EBD13F0B
:103E900018000020666666666666D63F1C00002035
:103EA00020000020CDCCCCCCCCCCE43F0C000020BA
:103EB000000000000000D03F10000020140000208F
:103EC000000000000000E83F333333333333EB3F6F
:103ED0003400002038000020343333333333C33F01
:103EE00040000020440000200000000000003F408F
:103EF0009C00002002F082FD9FEDFE0B53EC102B86
:103F0000CDE90A019DED0A0B51EC100B02F068F8A7
:103F100002D80020F9490870F8480078012808D133
:103F200000BFF748406C20F40040F549486400BFEA
:103F300000BFF4480088401C00B2F24908800846DF
:103F4000008804287DD100200880EF480088401CAC
:103F500000B2ED49088008460088322801D10020CF
:103F60000880EA4890ED000A20EE000AE848E64999
:103F7000B1F9001000EB810080ED000A9FEDE50A29
:103F8000E54880ED000A00200B9010E0E0490B9816
:103F900001EB800090ED000ADF48D0ED000A30EE22
:103FA000200A80ED000A0B98401C00B20B900B9881
:103FB0003228EBDDD848006802F020FD9FEDD70BDA
:103FC00053EC102BCDE906019DED060B51EC100BC7
:103FD00001F028FECDE908019DED080B51EC100B16
:103FE00001F08CFBCC490860084690ED000A01F016
:103FF00017FBCC4880ED000A006802F0FFFC9FED43
:10400000CA0B53EC102BCDE908019DED080B51ECC8
:10401000100B01F0E5FF05D8B6EE000AC14880EDAF
:10402000000A17E0BF48006802F0E8FC9FEDC00BF3
:1040300053EC102BCDE908019DED080B51EC100B52
:1040400000E008E002F0A7F904D89FEDBB0AB548EC
:1040500080ED000A00BFB948008800287DD1B8482B
:1040600090ED000AAF48D0ED000A30EE600AB54886
:1040700080ED030A90ED010AD0ED090A20EE200A36
:10408000F0EE000A80EE201A90ED000A71EE000AB0
:1040900090ED060A90ED031A01EE200A80ED050A64
:1040A00090ED010AD0ED090A60EE200AB0EE001A88
:1040B00080EE810AD0ED000A70EE600A90ED050AEC
:1040C00090ED041A01EE200A80ED050A406909907E
:1040D00002F094FC9FED9C0B53EC102BCDE90A01F0
:1040E0009DED0A0B51EC100B02F055F905D2B0EE24
:1040F000000A944880ED050A16E09248406909904C
:1041000002F07CFC9FED7B0B53EC102BCDE90A01F8
:104110009DED0A0B51EC100B01F062FF04D29FEDF4
:104120007D0A884880ED050A864890ED030A80EDF7
:10413000040A90ED050A80ED060A40690B9002F032
:104140005DFC834A03C29FED830B53EC102B804828
:1041500090ED000B51EC100B00E0C7E002F01BF9F2
:1041600005D89FED7C0B7A4880ED000B10E09FEDA9
:104170007B0B53EC102B764890ED000B51EC100BA1
:1041800001F02EFF04D29FED750B714880ED000BFE
:104190009FED700B6E4880ED000B72480088401C4C
:1041A00000B27049088008460088502801D10020DC
:1041B00008806C48B0F9000000EE100AB8EEC00AA2
:1041C000694880ED000A9FED690A694880ED000AA0
:1041D0006548D0ED000A664890ED001A80EE810A2D
:1041E0008DED0B0A0B9802F009FC624A03C261488C
:1041F00090ED000B51EC100B01F080FA059002F0ED
:10420000FDFB9FED5D0B53EC102BCDE906019DED01
:10421000060B51EC100B01F01FFFCDE908019DEDDD
:10422000080B51EC100B01F069FA0B909DED0B0A95
:10423000FCF756F8524880ED000A5248B0F90000E9
:1042400000EE100AB8EEC00A4D48D0ED000A20EE8C
:10425000200A4D4880ED000A006802F0CFFBCDE94E
:1042600008013B4890ED000B53EC102B9DED080B23
:1042700051EC100B01F0F0FECDE90A019DED0A0BA7
:1042800051EC100B01F03AFA3F490860084690EDF6
:10429000000AF0EE000A80EE201A80ED001A90ED80
:1042A000000ADFED3A0A30EE200ABDEEC00A10EE39
:1042B000100A00B236490880334890ED000ADFED5D
:1042C000330A30EE200ABDEEC00A10EE100A00B22A
:1042D000304908802E48B0F900100948FEF72AF945
:1042E0002C48B0F900100648FEF728F9134800885A
:1042F000012851E000000000000000009C000020A8
:10430000002C0140A00000204800002024000020D4
:104310000401002000000000500000200000000008
:10432000000049404C000020000000000000E03F79
:104330009A99999999193E40CDCCF0419600002068
:10434000580000206802002000000000000000402B
:1043500078000020000000000000F03F9A99999931
:104360009999C93FBC000020C00000200000A04275
:10437000C4000020C80000204AD8124DFB2119407B
:10438000AC000020A8000020B00000200000344451
:10439000D6000020D80000207ED1FE4800880128E9
:1043A0007BD1FD4890ED000AFC4880ED090A90EDB4
:1043B000060AD0ED090A20EE200AD0ED060A90ED9B
:1043C0000B1A00EEC10AD0ED070A90ED0E1A00EEAE
:1043D000810AD0ED080A90ED101A00EE810A80EDF6
:1043E0000C0A90ED070AD0ED0F0A20EE200AD0ED5E
:1043F000080A90ED111A00EE810AD0ED030A90ED43
:10440000061A20EE811AD0ED090AD0ED0A1AB0EE94
:10441000002A42EE210AD0ED0B1A70EEA10A01EE3D
:10442000200A80ED0D0A90ED0A0A80ED0B0A90ED4E
:10443000090A80ED0A0A90ED0E0A80ED100A90ED4F
:104440000C0A80ED0E0A90ED0F0A80ED110A90ED36
:104450000D0A80ED0F0A90ED140A8DED0B0A9DED0B
:104460000B0AFBF73DFFB1EE400ACC48D0ED0C0A39
:1044700020EE208A90ED140A8DED0B0A9DED0B0ABB
:10448000FBF7F2FEC548D0ED0D0A00EE208A80ED64
:10449000138A90ED130A01E0FDE306E280ED170AAE
:1044A00090ED160AD0ED020A20EE200AB0EE001AB6
:1044B000C0EE010A90ED150A70EE800A90ED1A0A1E
:1044C00090ED171A01EE200A80ED190A90ED160AF8
:1044D000D0ED020A20EE200AB0EE001AC0EE010A6A
:1044E00090ED150A70EEC00A90ED190A90ED181AB9
:1044F00001EE200A80ED190A406E099002F07EFA62
:104500009FEDA70B53EC102BCDE90A019DED0A0B93
:1045100051EC100B01F03FFF05D2B2EE040A9F48A8
:1045200080ED190A16E09D48406E099002F066FA87
:104530009FED9D0B53EC102BCDE90A019DED0A0B6D
:1045400051EC100B01F04CFD04D2BAEE040A934872
:1045500080ED190A914890ED170A80ED180A90ED48
:10456000190A80ED1A0A406E079002F047FA9FED93
:10457000900B53EC102BCDE908019DED080B51EC8D
:10458000100B01F01DFACDE90A019DED0A0B51EC6B
:10459000100B01F0B3F881494866084690ED140A03
:1045A000D0ED190A90ED021A00EE810A80ED140A8E
:1045B000006D099002F022FA9FED7F0B53EC102B57
:1045C000CDE90A019DED0A0B51EC100B01F0E3FE61
:1045D0001BD27248006D079002F010FA9FED760B27
:1045E00053EC102BCDE908019DED080B51EC100B9D
:1045F00001F002FFCDE90A019DED0A0B51EC100B11
:1046000001F07CF8654908652CE06448006D09906C
:1046100002F0F4F99FED6A0B53EC102BCDE90A017F
:104620009DED0A0B51EC100B01F0DAFC1AD25B483D
:10463000006D079002F0E2F99FED5F0B53EC102B39
:10464000CDE908019DED080B51EC100B01F0B8F914
:10465000CDE90A019DED0A0B51EC100B01F04EF86B
:104660004E490865584890ED000A5848D0ED000AB8
:1046700030EE600A564880ED030A90ED010AD0ED55
:10468000090A20EE200AF0EE000A80EE201A90EDD2
:10469000000A71EE000A90ED060A90ED031A01EE91
:1046A000200A80ED050A90ED010AD0ED090A20EEFE
:1046B000200AB0EE001AC0EE010A90ED000A70EE7A
:1046C000C00A90ED050A90ED041A01EE200A80ED73
:1046D000050A4069099002F091F99FED310B53EC06
:1046E000102BCDE90A019DED0A0B51EC100B01F0E6
:1046F00052FE05D2B2EE040A354880ED050A16E0F6
:1047000033484069099002F079F99FED270B53EC8B
:10471000102BCDE90A019DED0A0B51EC100B01F0B5
:104720005FFC04D2BAEE040A294880ED050A284845
:1047300090ED030A80ED040A90ED050A80ED060A6B
:10474000164890ED140A8DED0B0A9DED0B0AFBF750
:104750008BFD1F4890ED051A1E48D0ED000A40EE73
:10476000010A1D48C0ED000A90ED000AD0ED0E0AC6
:1047700020EE200AD0ED090A20EE200AD0ED010A31
:1047800090ED0F1A60EE810A90ED091A00EE810A91
:1047900024E000009A0000202C0000209C03002050
:1047A000000000000000244000000000000024C0C1
:1047B000FAB836548CA273406E861BF0F92119406A
:1047C0006E861BF0F92119C054000020140000204F
:1047D000B4020020440000204C030020D0ED020A67
:1047E00090ED101A60EE810A90ED091A00EE810A30
:1047F000D0ED050A90ED121A00EEC10AD0ED060ABE
:1048000090ED131A00EEC10AD0ED110A80EE201AC5
:1048100080ED041A0069099002F0F0F89FEDFE0B9C
:1048200053EC102BCDE90A019DED0A0B51EC100B56
:1048300001F0B1FD04D29FEDFA0AFA4880ED040AB6
:10484000F8480069099002F0D9F89FEDF70B53EC96
:10485000102BCDE90A019DED0A0B51EC100B01F074
:10486000BFFB04D29FEDF20AEE4880ED040AED484A
:1048700090ED020A80ED030A90ED010A80ED020A34
:1048800090ED000A80ED010A90ED060A80ED070A1E
:1048900090ED050A80ED060A90ED040A80ED050A08
:1048A00090ED040AE34880ED000AE3480088002800
:1048B0007ED1E24890ED000AE14880ED090A90EDD2
:1048C000060AD0ED090A20EE200AD0ED060A90ED86
:1048D0000B1A00EEC10AD0ED070A90ED0E1A00EE99
:1048E000810AD0ED080A90ED101A00EE810A80EDE1
:1048F0000C0A90ED070AD0ED0F0A20EE200AD0ED49
:10490000080A90ED111A00EE810AD0ED030A90ED2D
:10491000061A20EE811AD0ED090AD0ED0A1AB0EE7F
:10492000002A42EE210AD0ED0B1A70EEA10A01EE28
:10493000200A80ED0D0A90ED0A0A80ED0B0A90ED39
:10494000090A80ED0A0A90ED0E0A80ED100A90ED3A
:104950000C0A80ED0E0A90ED0F0A80ED110A90ED21
:104960000D0A80ED0F0A90ED140A8DED0B0A9DEDF6
:104970000B0AFBF779FCB248D0ED0C0A20EE208A36
:1049800090ED140A8DED0B0A9DED0B0AFBF7A8FCC8
:10499000AB48D0ED0D0A00EE208A80ED128A90ED32
:1049A000140A8DED0B0A9DED0B0AFBF799FC00E054
:1049B000F5E3B1EE400AA248D0ED0C0A20EE208AC1
:1049C00090ED140A8DED0B0A9DED0B0AFBF74CFCE4
:1049D0009B48D0ED0D0A00EE208A80ED138A90ED01
:1049E000130A80ED170A90ED160AD0ED020A60EE68
:1049F000200AB0EE001A80EE810AD0ED150A70EEA2
:104A0000200A90ED1A0A90ED171A01EE200A80EDA7
:104A1000190A90ED160AD0ED020A20EE200AF0EEF7
:104A2000000A80EE201A90ED150A71EE400A90ED12
:104A3000190A90ED181A01EE200A80ED190A406E4D
:104A4000099001F0DBFF1FEDAA0B53EC102BCDE911
:104A50000A019DED0A0B51EC100B01F09CFC05D2F4
:104A6000B2EE040A764880ED190A16E07448406EEA
:104A7000099001F0C3FF1FEDB40B53EC102BCDE9EF
:104A80000A019DED0A0B51EC100B01F0A9FA04D2BA
:104A9000BAEE040A6A4880ED190A694890ED170ACF
:104AA00080ED180A90ED190A80ED1A0A406E079001
:104AB00001F0A4FF1FEDC20B53EC102BCDE9080150
:104AC0009DED080B51EC100B00F07AFFCDE90A01C7
:104AD0009DED0A0B51EC100B00F010FE5849486692
:104AE000084690ED140AD0ED190A90ED021A00EE76
:104AF000810A80ED140A006D099001F07FFF1FED1F
:104B0000D20B53EC102BCDE90A019DED0A0B51ECB1
:104B1000100B01F040FC1BD24948006D079001F0DA
:104B20006DFF1FEDDB0B53EC102BCDE908019DED64
:104B3000080B51EC100B01F05FFCCDE90A019DED73
:104B40000A0B51EC100B00F0D9FD3D4908652CE033
:104B50003B48006D099001F051FF1FEDE70B53EC4E
:104B6000102BCDE90A019DED0A0B51EC100B01F061
:104B700037FA1AD23248006D079001F03FFF1FED5F
:104B8000F20B53EC102BCDE908019DED080B51EC15
:104B9000100B00F015FFCDE90A019DED0A0B51EC59
:104BA000100B00F0ABFD26490865264890ED000A81
:104BB000254880ED090A90ED060AD0ED090A20EE9D
:104BC000200AD0ED060A90ED0B1A00EEC10AD0EDD6
:104BD000070A90ED0E1A00EE810AD0ED080A90ED5A
:104BE000101A00EE810A80ED0C0A90ED070AD0ED54
:104BF0000F0A20EE200AD0ED080A90ED111A00EEFF
:104C0000810AD0ED030A90ED061A20EE811AD0ED4C
:104C1000090AD0ED0A1A19E0666666666666EE3F16
:104C20003333733F4C030020666666666666EEBFEC
:104C3000333373BFE00000209A0000202C000020D6
:104C40009C0300204400002008040020B0EE002A4D
:104C500042EE210AFE48D0ED0B1A70EEA10A01EED9
:104C6000200AFC4880ED0D0A90ED0A0A80ED0B0A3F
:104C700090ED090A80ED0A0A90ED0E0A80ED100A07
:104C800090ED0C0A80ED0E0A90ED0F0A80ED110AEE
:104C900090ED0D0A00E0FDE380ED0F0A90ED140A9F
:104CA0008DED0B0A9DED0B0AFBF7DEFAE948D0ED1E
:104CB0000C0A20EE208A90ED140A8DED0B0A9DED72
:104CC0000B0AFBF70DFBE348D0ED0D0A00EE208A3E
:104CD00080ED128A90ED140A8DED0B0A9DED0B0A02
:104CE000FBF7FEFAB1EE400ADA48D0ED0C0A20EEEE
:104CF000208A90ED140A8DED0B0A9DED0B0AFBF74F
:104D0000B3FAD448D0ED0D0A00EE208A80ED138A64
:104D100090ED130A80ED170A90ED160AD0ED020A05
:104D200060EE200AB0EE001A80EE810AD0ED150A7E
:104D300070EE200A90ED1A0A90ED171A01EE200A83
:104D400080ED190A90ED160AD0ED020A60EE200AF5
:104D5000B0EE001A80EE810AD0ED150A70EE600AFE
:104D600090ED190A90ED181A01EE200A80ED190A4B
:104D7000406E099001F042FE9FEDB70B53EC102BF3
:104D8000CDE90A019DED0A0B51EC100B01F003FB7C
:104D900005D2B2EE040AAF4880ED190A16E0AD481C
:104DA000406E099001F02AFE9FEDAD0B53EC102BE5
:104DB000CDE90A019DED0A0B51EC100B01F010F941
:104DC00004D2BAEE040AA34880ED190AA14890ED76
:104DD000170A80ED180A90ED190A80ED1A0A406E44
:104DE000079001F00BFE9FEDA00B53EC102BCDE9CB
:104DF00008019DED080B51EC100B00F0E1FDCDE931
:104E00000A019DED0A0B51EC100B00F077FC914963
:104E10004866084690ED140AD0ED190A8C4890EDCA
:104E2000021A00EE810A084680ED140A006D09900E
:104E300001F0E4FD9FED8E0B53EC102BCDE90A0140
:104E40009DED0A0B51EC100B01F0A5FA1BD2814825
:104E5000006D079001F0D2FD9FED850B53EC102BF8
:104E6000CDE908019DED080B51EC100B01F0C4FADF
:104E7000CDE90A019DED0A0B51EC100B00F03EFC50
:104E8000744908652CE07348006D099001F0B6FD87
:104E90009FED790B53EC102BCDE90A019DED0A0B28
:104EA00051EC100B01F09CF81AD26A48006D079083
:104EB00001F0A4FD9FED6E0B53EC102BCDE9080122
:104EC0009DED080B51EC100B00F07AFDCDE90A01C5
:104ED0009DED0A0B51EC100B00F010FC5D490865CC
:104EE000674890ED000A6748D0ED000A30EE600A8E
:104EF000654880ED000A90ED070AD0ED230A20EE08
:104F0000200AF0EE000A80EE201A90ED060A71EEFB
:104F1000000A90ED030A90ED001A01EE200A80EDE0
:104F2000020A90ED070AD0ED230A20EE200AF0EEE7
:104F3000000A80EE201A90ED060A71EE400A90ED0C
:104F4000020A90ED011A01EE200A80ED020A806843
:104F5000099001F053FD9FED4D0B53EC102BCDE963
:104F60000A019DED0A0B51EC100B01F014FA05D269
:104F70009FED480A444880ED020A16E042488068E6
:104F8000099001F03BFD9FED440B53EC102BCDE954
:104F90000A019DED0A0B51EC100B01F021F804D22F
:104FA0009FED3F0A384880ED020A374890ED000A2D
:104FB00080ED010A90ED020A80ED030A9FED390AA7
:104FC00080ED180A234890ED130A2F4880ED190A46
:104FD00090ED180AD0ED190A30EE600A80ED120A41
:104FE00090ED1B0AD0ED230A20EE200AF0EE000A15
:104FF00080EE201A90ED1A0A71EE000A90ED150A63
:1050000090ED121A01EE200A80ED140A90ED1B0AB1
:10501000D0ED230A20EE200AF0EE000A80EE201ADE
:1050200090ED1A0A71EE400A90ED140A90ED131AF1
:1050300001EE200A80ED140A006D099001F0DEFCFB
:105040009FED050B53EC102BCDE90A012CE000007D
:105050009C03002008040020000000000000244001
:1050600000000000000024C0FAB836548CA273403F
:105070006E861BF0F92119406E861BF0F92119C0CC
:105080005400002014000020D80100205C8FC2F5DD
:10509000285CEF3F48E17A3F5C8FC2F5285CEFBFA8
:1050A00048E17ABF000000009DED0A0B51EC100BA7
:1050B00001F071F905D2B2EE040AFE4880ED140A3F
:1050C00016E0FC48006D099001F098FC1FED1C0BE8
:1050D00053EC102BCDE90A019DED0A0B51EC100B9E
:1050E00000F07EFF04D2BAEE040AF24880ED140A02
:1050F000F04890ED120A80ED130A90ED140A80ED4D
:10510000150AED48806C019001F078FC9FEDEB0BE7
:1051100053EC102BCDE902019DED020B51EC100B6D
:1051200000F09AFFCDE90601E248006D039001F01E
:1051300065FCCDE904019DED060B53EC102B9DEDB4
:10514000040B51EC100B00F03BFCCDE908019DED88
:10515000080B51EC100B00F0C5FACDE90A019DEDEA
:105160000A0B51EC100B00F0C9FAD2490865084649
:10517000006D099001F042FC1FED490B53EC102B20
:10518000CDE90A019DED0A0B51EC100B01F003F97A
:1051900006D2B2EE040AC74880ED140A17E078E19F
:1051A000C448006D099001F029FC1FED530B53EC2E
:1051B000102BCDE90A019DED0A0B51EC100B00F00C
:1051C0000FFF04D2BAEE040ABA4880ED140AB948B7
:1051D00090ED140ABB48D0ED130A30EE200AB54812
:1051E00080ED140A90ED020A80ED0E0AB24890EDAF
:1051F000120AB04880ED0F0A90ED0E0AD0ED0F0AAA
:1052000030EE600A80ED080A90ED110AD0ED230A15
:1052100060EE200AB0EE001A80EE810AD0ED100A8E
:1052200070EE200A90ED0B0A90ED081A01EE200AAC
:1052300080ED0A0A90ED110AD0ED230A20EE200A33
:10524000F0EE000A80EE201A90ED100A71EE400A8E
:1052500090ED0A0A90ED091A01EE200A80ED0A0A83
:10526000806A099001F0CAFB1FED850B53EC102BEF
:10527000CDE90A019DED0A0B51EC100B01F08BF802
:1052800005D2B2EE040A8B4880ED0A0A16E089487E
:10529000806A099001F0B2FB1FED8F0B53EC102BCD
:1052A000CDE90A019DED0A0B51EC100B00F098FEC0
:1052B00004D2BAEE040A7F4880ED0A0A7D4890EDD8
:1052C000080A80ED090A90ED0A0A80ED0B0A7A4877
:1052D000C06C039001F092FB9FED780B53EC102B08
:1052E000CDE904019DED040B51EC100B00F0B4FE70
:1052F000CDE908016F4890ED0A0AB1EE400A8DED44
:10530000050A059801F07AFBCDE906019DED080B31
:1053100053EC102B9DED060B51EC100B00F050FBE5
:10532000CDE90A019DED0A0B51EC100B00F0E6F9F6
:10533000604988620846806A099001F05FFB1FEDB2
:10534000BA0B53EC102BCDE90A019DED0A0B51EC81
:10535000100B01F020F805D2B2EE040A554880ED9A
:105360000A0A16E05348806A099001F047FB1FEDD6
:10537000C40B53EC102BCDE90A019DED0A0B51EC47
:10538000100B00F02DFE04D2BAEE040A494880ED5D
:105390000A0A484890ED0A0A4A48D0ED120A30EE4F
:1053A000200A444880ED0A0A434890ED140A8DED26
:1053B0000B0A9DED0B0AFAF757FF3E48D0ED0A0A9B
:1053C00020EE208A3C4890ED140A8DED0B0A9DEDED
:1053D0000B0AFAF785FF3748D0ED140A00EE608A11
:1053E00080ED208A344890ED140A8DED0B0A9DED76
:1053F0000B0AFAF775FF2F48D0ED0A0A20EE208A33
:105400002D4890ED140A8DED0B0A9DED0B0AFAF76D
:105410002BFF2848D0ED140A00EE208A80ED218A67
:1054200090ED200A80ED220AD0F88800099001F062
:10543000E5FA1FEDEA0B53EC102BCDE90A019DEDC7
:105440000A0B51EC100B00F0A6FF04D21FEDEF0A7F
:10545000184880ED220A1748D0F88800099001F01A
:10546000CDFA1FEDF30B53EC102BCDE90A019DEDA6
:105470000A0B51EC100B00F0B3FD04D21FEDF80A3B
:105480000C4880ED220A0B4890ED220A0E4880ED70
:10549000000A00E077E00D480088401C00B20B498C
:1054A000088008460088502801D10020088007485D
:1054B0000EE00000D801002008040020B81E85EB93
:1054C00051B89E3F9C030020E0000020BC0000205B
:1054D000B0F9000000EE100AB8EEC00A2C4880EDCA
:1054E000000A9FED2C0A2C4880ED000A2848D0EDD8
:1054F000000A294890ED001A80EE810A8DED0B0A12
:105500000B9801F07BFA254A03C22548B0F9000048
:1055100000EE100AB8EEC00A2248D0ED000A20EED4
:10552000200A214880ED000A90ED000AF0EE000A02
:1055300080EE201A80ED001A90ED000ADFED1B0AC4
:1055400030EE200ABDEEC00A10EE100A00B2184973
:105550000880154890ED000ADFED140A30EE200AAD
:10556000BDEEC00A10EE100A00B2124908801048C1
:10557000B0F900101048FCF7DDFF0E48B0F900103C
:105580000D48FCF7DBFF0DB0BDEC028B00BD000049
:10559000C00000200000A042C4000020C80000207D
:1055A000A8000020E0000020B000002000003444EB
:1055B000D6000020D8000020002C014000BF402071
:1055C0000149086200BF704700440040002809DB21
:1055D00000F01F02012191404209920002F1E022F5
:1055E000C2F800117047000002480068C0F30220B2
:1055F000704700000CED00E010B5002804DB0A073E
:10560000130E054A135406E00A07140E034A00F06D
:105610000F031B1FD45410BD00E400E018ED00E0A0
:1056200010B52DED028BB1EEC08A18EE100A20F0F5
:105630000040C0F1FF40C00F0AD010EE100A20F069
:105640000040C0F1FF40C00F04BF0120FAF7C1FEC7
:10565000B0EE480ABDEC028B10BD00000120FCF743
:1056600021FB4FF08050FCF70FFB032002461A4B42
:1056700019684FF6FF031940184B0B4343EA022108
:10568000154B196000BFFFF7AFFF054600220F2141
:10569000FDF774FC044621464FF0FF30FFF7ACFFE6
:1056A000FDF7B8FEFDF7B4F9FCF7DCFFFDF73EF9B6
:1056B000FDF7B2FBFDF700FCFDF770F9FDF758FAB6
:1056C000FDF7AEFAFAF764FF4FF4805004498861A1
:1056D00000BF00BFFEE700000CED00E00000FA058F
:1056E0000004004881F00041704780F0004070479E
:1056F00021F00041704720F00040704721F0004247
:10570000A2F16052B2F5801F01F0004328BFD2F130
:105710007E6C51D9F1EE10CA1CF4400F14D15FEA2F
:10572000C00C43EAC20202EB507008BF70475FEA48
:105730004C0C40F10000DFF880C241F0698028BFC6
:1057400020F0010001F064B8C30001F0004343EA17
:10575000C20202EB507008BF70471B4248BF4FEABD
:105760004C0C1CF4000F08BF401CDFF84CC201F0C9
:105770004FB8C30001F0004343EAC20202EB50728B
:1057800004BF104670471B4248BF4FEA4C0C1CF444
:10579000000FDFF824C218BF104641F0398008BF5F
:1057A000521C12F4000F08BF104601F0318021F0A6
:1057B000004201F0004330E050EA410C04BF0846CB
:1057C00070475FEA125CBCF1FE0F1ED1F1EE10CA09
:1057D0001CF4400FCDD15FEAC00C9BD05FEA001CE7
:1057E0004FEAC20C4CEB507C04BFC2002CEAD27CC6
:1057F0001CF4000F04BF4CEA0300DFF8BCC101F049
:10580000078021F00042A2F16052B2F5801F4FEAFA
:10581000410C2ADB1CF5001F16D2F1EE10CA1CF455
:10582000806F06D02CF0005C4CF0805CA1F14061F0
:105830002AE04FF07F40DFF884C143EA500000F0D7
:10584000E7BF084601F095B970B500F0E5FC00BF70
:10585000000000B988000004FFF7F3BF21F0704298
:1058600043EA507040EAC2007047F1EE10CA2CF0D3
:10587000805C4CF0005C1CF4006F25D04B00B3F54D
:10588000001F51D301F140611CF4400F40F07E80B5
:105890000CF0405CC3004CF0880C11D05CF0404C24
:1058A00010F0805F0CD0034610F1005041F1000170
:1058B000020108BF20F00050834218BF2CF0004CBA
:1058C00000F0604001F051BA1CF4400F1AD01B42A6
:1058D00048BF4FEA4C0C1CF4000F13D112F1406288
:1058E00048BF22F07F424FEAC00CBCF1010F43EAEF
:1058F000C20242EB50704FF0880228BF42F0804253
:1059000001F03CB912F1406248BF22F07F425FEAE9
:10591000C00C43EAC20242EA50704FF0880218BF3E
:1059200042F0404201F02AB901F0004321F0004169
:10593000094214D0B1FA81FCACF10B0CCCF120027D
:1059400001FA0CF120FA02F241EA02014FEA0C528C
:1059500000FA0CF0A1EB020181EA03010FE0B0FABA
:1059600080F200FA02F002F115024FEAD0214FEA6C
:105970000252A1EB02014FEA405081EA0301F1EE2D
:1059800010CA2CF0805C4CF0005C7BE762460CF0A7
:10599000405CC3004CF0880C92D05CF0404C094253
:1059A00048BF520012F4000F8AD110F1005041F1AB
:1059B00000012CF0004C83D18800004088000010CA
:1059C00010B5DFF840E211F5801C13F580141EEAD3
:1059D0004C0F18BF1EEA440F00F0C88091EA030F75
:1059E00048BF83F0004300F11C85841A71EB030C5F
:1059F00005D2121943EB0C03001B61EB0C014FEABB
:105A00001154A4EB135C23EA6E0321EA045143F41E
:105A10008013DCF1200E53D322FA0CFE10EB0E00A3
:105A200023FA0CFE41EB0E01CCF1200E03FA0EFE20
:105A300010EB0E0051F10001B1F5801FCCF1200EEA
:105A400053D201EB045112FA0EF2BDE8104008BF28
:105A50007047F1EE10CA1CF4400F1ED14FF0110C2C
:105A600092F0000F4CF0804C40F1D286401C38BFC1
:105A70005FEA420240F0CC86002814BF20F001000B
:105A800041F100014FEA410313F5001F24BF4CF020
:105A9000805CA1F1C04100F0BBBE11F0004F54BFCB
:105AA0001CF4000F1CF4800F4FF0110C4CF0804CD4
:105AB00040F0AE86401CC0F0AB8641F10001E1E74A
:105AC000012A43EB0302ACF1200CDCF11F0E32BFC4
:105AD0004FF0000E23FA0CF310EB030041EB0451DE
